{
  "contractName": "Teacher",
  "abi": [
    {
      "inputs": [
        {
          "internalType": "string",
          "name": "_ipfsHash_photo",
          "type": "string"
        },
        {
          "internalType": "string",
          "name": "_id",
          "type": "string"
        },
        {
          "internalType": "string",
          "name": "_name",
          "type": "string"
        },
        {
          "internalType": "string",
          "name": "_subject",
          "type": "string"
        },
        {
          "internalType": "string",
          "name": "_gmail",
          "type": "string"
        },
        {
          "internalType": "address",
          "name": "_account",
          "type": "address"
        },
        {
          "internalType": "address",
          "name": "_admin",
          "type": "address"
        }
      ],
      "stateMutability": "nonpayable",
      "type": "constructor"
    },
    {
      "anonymous": false,
      "inputs": [
        {
          "indexed": true,
          "internalType": "address",
          "name": "eventCaller",
          "type": "address"
        }
      ],
      "name": "AddSpreadsheet",
      "type": "event"
    },
    {
      "anonymous": false,
      "inputs": [
        {
          "indexed": true,
          "internalType": "address",
          "name": "eventCaller",
          "type": "address"
        }
      ],
      "name": "UpdateDetails",
      "type": "event"
    },
    {
      "inputs": [],
      "name": "account",
      "outputs": [
        {
          "internalType": "address",
          "name": "",
          "type": "address"
        }
      ],
      "stateMutability": "view",
      "type": "function"
    },
    {
      "inputs": [],
      "name": "admin",
      "outputs": [
        {
          "internalType": "address",
          "name": "",
          "type": "address"
        }
      ],
      "stateMutability": "view",
      "type": "function"
    },
    {
      "inputs": [],
      "name": "detailsRequestedFlag",
      "outputs": [
        {
          "internalType": "bool",
          "name": "",
          "type": "bool"
        }
      ],
      "stateMutability": "view",
      "type": "function"
    },
    {
      "inputs": [],
      "name": "gmail",
      "outputs": [
        {
          "internalType": "string",
          "name": "",
          "type": "string"
        }
      ],
      "stateMutability": "view",
      "type": "function"
    },
    {
      "inputs": [],
      "name": "id",
      "outputs": [
        {
          "internalType": "string",
          "name": "",
          "type": "string"
        }
      ],
      "stateMutability": "view",
      "type": "function"
    },
    {
      "inputs": [],
      "name": "ipfsHash_photo",
      "outputs": [
        {
          "internalType": "string",
          "name": "",
          "type": "string"
        }
      ],
      "stateMutability": "view",
      "type": "function"
    },
    {
      "inputs": [],
      "name": "name",
      "outputs": [
        {
          "internalType": "string",
          "name": "",
          "type": "string"
        }
      ],
      "stateMutability": "view",
      "type": "function"
    },
    {
      "inputs": [],
      "name": "subject",
      "outputs": [
        {
          "internalType": "string",
          "name": "",
          "type": "string"
        }
      ],
      "stateMutability": "view",
      "type": "function"
    },
    {
      "inputs": [
        {
          "internalType": "string",
          "name": "_sheetlink",
          "type": "string"
        },
        {
          "internalType": "string",
          "name": "_title",
          "type": "string"
        }
      ],
      "name": "addSpreadSheet",
      "outputs": [],
      "stateMutability": "nonpayable",
      "type": "function"
    },
    {
      "inputs": [],
      "name": "getSpreadSheets",
      "outputs": [
        {
          "components": [
            {
              "internalType": "string",
              "name": "sheetlink",
              "type": "string"
            },
            {
              "internalType": "string",
              "name": "title",
              "type": "string"
            }
          ],
          "internalType": "struct Teacher.GoogleSpreadSheet[]",
          "name": "",
          "type": "tuple[]"
        }
      ],
      "stateMutability": "view",
      "type": "function"
    },
    {
      "inputs": [
        {
          "internalType": "string",
          "name": "_sheetlink",
          "type": "string"
        }
      ],
      "name": "getSpreadSheet",
      "outputs": [
        {
          "components": [
            {
              "internalType": "string",
              "name": "sheetlink",
              "type": "string"
            },
            {
              "internalType": "string",
              "name": "title",
              "type": "string"
            }
          ],
          "internalType": "struct Teacher.GoogleSpreadSheet",
          "name": "",
          "type": "tuple"
        }
      ],
      "stateMutability": "view",
      "type": "function"
    },
    {
      "inputs": [],
      "name": "requestDetailsUpdate",
      "outputs": [],
      "stateMutability": "nonpayable",
      "type": "function"
    },
    {
      "inputs": [
        {
          "internalType": "string",
          "name": "_id",
          "type": "string"
        },
        {
          "internalType": "string",
          "name": "_name",
          "type": "string"
        },
        {
          "internalType": "string",
          "name": "_subject",
          "type": "string"
        },
        {
          "internalType": "string",
          "name": "_gmail",
          "type": "string"
        }
      ],
      "name": "updateDetails",
      "outputs": [],
      "stateMutability": "nonpayable",
      "type": "function"
    },
    {
      "inputs": [
        {
          "internalType": "string",
          "name": "_subject",
          "type": "string"
        }
      ],
      "name": "updateSubject",
      "outputs": [],
      "stateMutability": "nonpayable",
      "type": "function"
    },
    {
      "inputs": [],
      "name": "isDetailsRequested",
      "outputs": [
        {
          "internalType": "bool",
          "name": "",
          "type": "bool"
        }
      ],
      "stateMutability": "view",
      "type": "function"
    }
  ],
  "bytecode": "0x60806040523480156200001157600080fd5b5060405162001dad38038062001dad833981810160405281019062000037919062000410565b86600090805190602001906200004f9291906200015e565b508560019080519060200190620000689291906200015e565b508460029080519060200190620000819291906200015e565b5083600390805190602001906200009a9291906200015e565b508260049080519060200190620000b39291906200015e565b5081600560006101000a81548173ffffffffffffffffffffffffffffffffffffffff021916908373ffffffffffffffffffffffffffffffffffffffff16021790555080600660006101000a81548173ffffffffffffffffffffffffffffffffffffffff021916908373ffffffffffffffffffffffffffffffffffffffff1602179055506000600660146101000a81548160ff02191690831515021790555050505050505050620005c3565b8280546200016c906200058d565b90600052602060002090601f016020900481019282620001905760008555620001dc565b82601f10620001ab57805160ff1916838001178555620001dc565b82800160010185558215620001dc579182015b82811115620001db578251825591602001919060010190620001be565b5b509050620001eb9190620001ef565b5090565b5b808211156200020a576000816000905550600101620001f0565b5090565b6000604051905090565b600080fd5b600080fd5b600080fd5b600080fd5b6000601f19601f8301169050919050565b7f4e487b7100000000000000000000000000000000000000000000000000000000600052604160045260246000fd5b62000277826200022c565b810181811067ffffffffffffffff821117156200029957620002986200023d565b5b80604052505050565b6000620002ae6200020e565b9050620002bc82826200026c565b919050565b600067ffffffffffffffff821115620002df57620002de6200023d565b5b620002ea826200022c565b9050602081019050919050565b60005b8381101562000317578082015181840152602081019050620002fa565b8381111562000327576000848401525b50505050565b6000620003446200033e84620002c1565b620002a2565b90508281526020810184848401111562000363576200036262000227565b5b62000370848285620002f7565b509392505050565b600082601f83011262000390576200038f62000222565b5b8151620003a28482602086016200032d565b91505092915050565b600073ffffffffffffffffffffffffffffffffffffffff82169050919050565b6000620003d882620003ab565b9050919050565b620003ea81620003cb565b8114620003f657600080fd5b50565b6000815190506200040a81620003df565b92915050565b600080600080600080600060e0888a03121562000432576200043162000218565b5b600088015167ffffffffffffffff8111156200045357620004526200021d565b5b620004618a828b0162000378565b975050602088015167ffffffffffffffff8111156200048557620004846200021d565b5b620004938a828b0162000378565b965050604088015167ffffffffffffffff811115620004b757620004b66200021d565b5b620004c58a828b0162000378565b955050606088015167ffffffffffffffff811115620004e957620004e86200021d565b5b620004f78a828b0162000378565b945050608088015167ffffffffffffffff8111156200051b576200051a6200021d565b5b620005298a828b0162000378565b93505060a06200053c8a828b01620003f9565b92505060c06200054f8a828b01620003f9565b91505092959891949750929550565b7f4e487b7100000000000000000000000000000000000000000000000000000000600052602260045260246000fd5b60006002820490506001821680620005a657607f821691505b60208210811415620005bd57620005bc6200055e565b5b50919050565b6117da80620005d36000396000f3fe608060405234801561001057600080fd5b50600436106100f55760003560e01c806361f568b011610097578063af640d0f11610066578063af640d0f1461022c578063e64ae14d1461024a578063efd69d8a14610266578063f851a44014610296576100f5565b806361f568b0146101ca57806374d0e10d146101e6578063a0d807a914610204578063a2059ea01461020e576100f5565b8063440898a4116100d3578063440898a41461015457806344410719146101725780635dab2420146101905780636049a45d146101ae576100f5565b806306653c37146100fa57806306fdde03146101185780630a59a98c14610136575b600080fd5b6101026102b4565b60405161010f9190611047565b60405180910390f35b610120610437565b60405161012d91906110b3565b60405180910390f35b61013e6104c5565b60405161014b91906110b3565b60405180910390f35b61015c610553565b60405161016991906110b3565b60405180910390f35b61017a6105e1565b60405161018791906110b3565b60405180910390f35b61019861066f565b6040516101a59190611116565b60405180910390f35b6101c860048036038101906101c3919061127a565b610695565b005b6101e460048036038101906101df9190611351565b6107e5565b005b6101ee61099a565b6040516101fb91906113e4565b60405180910390f35b61020c6109b1565b005b610216610aae565b60405161022391906113e4565b60405180910390f35b610234610ac1565b60405161024191906110b3565b60405180910390f35b610264600480360381019061025f91906113ff565b610b4f565b005b610280600480360381019061027b91906113ff565b610bf9565b60405161028d919061148c565b60405180910390f35b61029e610dc5565b6040516102ab9190611116565b60405180910390f35b60606008805480602002602001604051908101604052809291908181526020016000905b8282101561042e578382906000526020600020906002020160405180604001604052908160008201805461030b906114dd565b80601f0160208091040260200160405190810160405280929190818152602001828054610337906114dd565b80156103845780601f1061035957610100808354040283529160200191610384565b820191906000526020600020905b81548152906001019060200180831161036757829003601f168201915b5050505050815260200160018201805461039d906114dd565b80601f01602080910402602001604051908101604052809291908181526020018280546103c9906114dd565b80156104165780601f106103eb57610100808354040283529160200191610416565b820191906000526020600020905b8154815290600101906020018083116103f957829003601f168201915b505050505081525050815260200190600101906102d8565b50505050905090565b60028054610444906114dd565b80601f0160208091040260200160405190810160405280929190818152602001828054610470906114dd565b80156104bd5780601f10610492576101008083540402835291602001916104bd565b820191906000526020600020905b8154815290600101906020018083116104a057829003601f168201915b505050505081565b600380546104d2906114dd565b80601f01602080910402602001604051908101604052809291908181526020018280546104fe906114dd565b801561054b5780601f106105205761010080835404028352916020019161054b565b820191906000526020600020905b81548152906001019060200180831161052e57829003601f168201915b505050505081565b60008054610560906114dd565b80601f016020809104026020016040519081016040528092919081815260200182805461058c906114dd565b80156105d95780601f106105ae576101008083540402835291602001916105d9565b820191906000526020600020905b8154815290600101906020018083116105bc57829003601f168201915b505050505081565b600480546105ee906114dd565b80601f016020809104026020016040519081016040528092919081815260200182805461061a906114dd565b80156106675780601f1061063c57610100808354040283529160200191610667565b820191906000526020600020905b81548152906001019060200180831161064a57829003601f168201915b505050505081565b600560009054906101000a900473ffffffffffffffffffffffffffffffffffffffff1681565b600660009054906101000a900473ffffffffffffffffffffffffffffffffffffffff1673ffffffffffffffffffffffffffffffffffffffff163373ffffffffffffffffffffffffffffffffffffffff1614610725576040517f08c379a000000000000000000000000000000000000000000000000000000000815260040161071c90611581565b60405180910390fd5b836001908051906020019061073b929190610deb565b508260029080519060200190610752929190610deb565b508160039080519060200190610769929190610deb565b508060049080519060200190610780929190610deb565b506000600660146101000a81548160ff0219169083151502179055503373ffffffffffffffffffffffffffffffffffffffff167fe1a75def8f62587b0b5b394edc9c8239152a3bf19d7dfe33ef01c259a81d350a60405160405180910390a250505050565b600560009054906101000a900473ffffffffffffffffffffffffffffffffffffffff1673ffffffffffffffffffffffffffffffffffffffff163373ffffffffffffffffffffffffffffffffffffffff1614610875576040517f08c379a000000000000000000000000000000000000000000000000000000000815260040161086c906115ed565b60405180910390fd5b600060405180604001604052808481526020018381525090508060078460405161089f9190611649565b908152602001604051809103902060008201518160000190805190602001906108c9929190610deb565b5060208201518160010190805190602001906108e6929190610deb565b5090505060088190806001815401808255809150506001900390600052602060002090600202016000909190919091506000820151816000019080519060200190610932929190610deb565b50602082015181600101908051906020019061094f929190610deb565b5050503373ffffffffffffffffffffffffffffffffffffffff167f668fcbf93ca1cfcd3b7a9e4040524a691003d2f6a592746b9adc50aee3000beb60405160405180910390a2505050565b6000600660149054906101000a900460ff16905090565b600560009054906101000a900473ffffffffffffffffffffffffffffffffffffffff1673ffffffffffffffffffffffffffffffffffffffff163373ffffffffffffffffffffffffffffffffffffffff1614610a41576040517f08c379a0000000000000000000000000000000000000000000000000000000008152600401610a38906116ac565b60405180910390fd5b600660149054906101000a900460ff1615610a91576040517f08c379a0000000000000000000000000000000000000000000000000000000008152600401610a8890611718565b60405180910390fd5b6001600660146101000a81548160ff021916908315150217905550565b600660149054906101000a900460ff1681565b60018054610ace906114dd565b80601f0160208091040260200160405190810160405280929190818152602001828054610afa906114dd565b8015610b475780601f10610b1c57610100808354040283529160200191610b47565b820191906000526020600020905b815481529060010190602001808311610b2a57829003601f168201915b505050505081565b600660009054906101000a900473ffffffffffffffffffffffffffffffffffffffff1673ffffffffffffffffffffffffffffffffffffffff163373ffffffffffffffffffffffffffffffffffffffff1614610bdf576040517f08c379a0000000000000000000000000000000000000000000000000000000008152600401610bd690611581565b60405180910390fd5b8060039080519060200190610bf5929190610deb565b5050565b610c01610e71565b6000600783604051610c139190611649565b90815260200160405180910390206000018054610c2f906114dd565b905011610c71576040517f08c379a0000000000000000000000000000000000000000000000000000000008152600401610c6890611784565b60405180910390fd5b600782604051610c819190611649565b9081526020016040518091039020604051806040016040529081600082018054610caa906114dd565b80601f0160208091040260200160405190810160405280929190818152602001828054610cd6906114dd565b8015610d235780601f10610cf857610100808354040283529160200191610d23565b820191906000526020600020905b815481529060010190602001808311610d0657829003601f168201915b50505050508152602001600182018054610d3c906114dd565b80601f0160208091040260200160405190810160405280929190818152602001828054610d68906114dd565b8015610db55780601f10610d8a57610100808354040283529160200191610db5565b820191906000526020600020905b815481529060010190602001808311610d9857829003601f168201915b5050505050815250509050919050565b600660009054906101000a900473ffffffffffffffffffffffffffffffffffffffff1681565b828054610df7906114dd565b90600052602060002090601f016020900481019282610e195760008555610e60565b82601f10610e3257805160ff1916838001178555610e60565b82800160010185558215610e60579182015b82811115610e5f578251825591602001919060010190610e44565b5b509050610e6d9190610e8b565b5090565b604051806040016040528060608152602001606081525090565b5b80821115610ea4576000816000905550600101610e8c565b5090565b600081519050919050565b600082825260208201905092915050565b6000819050602082019050919050565b600081519050919050565b600082825260208201905092915050565b60005b83811015610f0e578082015181840152602081019050610ef3565b83811115610f1d576000848401525b50505050565b6000601f19601f8301169050919050565b6000610f3f82610ed4565b610f498185610edf565b9350610f59818560208601610ef0565b610f6281610f23565b840191505092915050565b60006040830160008301518482036000860152610f8a8282610f34565b91505060208301518482036020860152610fa48282610f34565b9150508091505092915050565b6000610fbd8383610f6d565b905092915050565b6000602082019050919050565b6000610fdd82610ea8565b610fe78185610eb3565b935083602082028501610ff985610ec4565b8060005b8581101561103557848403895281516110168582610fb1565b945061102183610fc5565b925060208a01995050600181019050610ffd565b50829750879550505050505092915050565b600060208201905081810360008301526110618184610fd2565b905092915050565b600082825260208201905092915050565b600061108582610ed4565b61108f8185611069565b935061109f818560208601610ef0565b6110a881610f23565b840191505092915050565b600060208201905081810360008301526110cd818461107a565b905092915050565b600073ffffffffffffffffffffffffffffffffffffffff82169050919050565b6000611100826110d5565b9050919050565b611110816110f5565b82525050565b600060208201905061112b6000830184611107565b92915050565b6000604051905090565b600080fd5b600080fd5b600080fd5b600080fd5b7f4e487b7100000000000000000000000000000000000000000000000000000000600052604160045260246000fd5b61118782610f23565b810181811067ffffffffffffffff821117156111a6576111a561114f565b5b80604052505050565b60006111b9611131565b90506111c5828261117e565b919050565b600067ffffffffffffffff8211156111e5576111e461114f565b5b6111ee82610f23565b9050602081019050919050565b82818337600083830152505050565b600061121d611218846111ca565b6111af565b9050828152602081018484840111156112395761123861114a565b5b6112448482856111fb565b509392505050565b600082601f83011261126157611260611145565b5b813561127184826020860161120a565b91505092915050565b600080600080608085870312156112945761129361113b565b5b600085013567ffffffffffffffff8111156112b2576112b1611140565b5b6112be8782880161124c565b945050602085013567ffffffffffffffff8111156112df576112de611140565b5b6112eb8782880161124c565b935050604085013567ffffffffffffffff81111561130c5761130b611140565b5b6113188782880161124c565b925050606085013567ffffffffffffffff81111561133957611338611140565b5b6113458782880161124c565b91505092959194509250565b600080604083850312156113685761136761113b565b5b600083013567ffffffffffffffff81111561138657611385611140565b5b6113928582860161124c565b925050602083013567ffffffffffffffff8111156113b3576113b2611140565b5b6113bf8582860161124c565b9150509250929050565b60008115159050919050565b6113de816113c9565b82525050565b60006020820190506113f960008301846113d5565b92915050565b6000602082840312156114155761141461113b565b5b600082013567ffffffffffffffff81111561143357611432611140565b5b61143f8482850161124c565b91505092915050565b600060408301600083015184820360008601526114658282610f34565b9150506020830151848203602086015261147f8282610f34565b9150508091505092915050565b600060208201905081810360008301526114a68184611448565b905092915050565b7f4e487b7100000000000000000000000000000000000000000000000000000000600052602260045260246000fd5b600060028204905060018216806114f557607f821691505b60208210811415611509576115086114ae565b5b50919050565b7f4f6e6c792061646d696e2063616e206d616e616765207465616368657220646560008201527f7461696c73000000000000000000000000000000000000000000000000000000602082015250565b600061156b602583611069565b91506115768261150f565b604082019050919050565b6000602082019050818103600083015261159a8161155e565b9050919050565b7f4f6e6c7920746561636865722063616e20616464000000000000000000000000600082015250565b60006115d7601483611069565b91506115e2826115a1565b602082019050919050565b60006020820190508181036000830152611606816115ca565b9050919050565b600081905092915050565b600061162382610ed4565b61162d818561160d565b935061163d818560208601610ef0565b80840191505092915050565b60006116558284611618565b915081905092915050565b7f4f6e6c7920746561636865722063616e20726571756573742075706461746573600082015250565b6000611696602083611069565b91506116a182611660565b602082019050919050565b600060208201905081810360008301526116c581611689565b9050919050565b7f55706461746520616c7265616479207265717565737465640000000000000000600082015250565b6000611702601883611069565b915061170d826116cc565b602082019050919050565b60006020820190508181036000830152611731816116f5565b9050919050565b7f5370726561647368656574206e6f7420666f756e640000000000000000000000600082015250565b600061176e601583611069565b915061177982611738565b602082019050919050565b6000602082019050818103600083015261179d81611761565b905091905056fea26469706673582212203002a0b7cba1c7654c2a98fb94d6bf8f9c97eb3e6ddb90d93c7f7fec1239d57d64736f6c63430008090033",
  "immutableReferences": {},
  "source": "// SPDX-License-Identifier: MIT\r\npragma solidity ^0.8.9;\r\n\r\nimport \"./Admin.sol\";\r\n\r\ncontract TeacherFactory {\r\n    Admin public adminContract;\r\n    mapping(address => Teacher) public teachers;\r\n    address[] public teacherAccounts;\r\n\r\n    event TeacherCreated(address indexed eventCaller, address teacherAddress, string name, string subject, address account);\r\n    event TeacherDeleted(address indexed eventCaller, address teacherAddress);\r\n\r\n    constructor(address _adminAddress) {\r\n        adminContract = Admin(_adminAddress);\r\n    }\r\n\r\n    function createTeacher(\r\n        string memory _ipfsHash_photo,\r\n        string memory _id,\r\n        string memory _name,\r\n        string memory _subject,\r\n        string memory _gmail,\r\n        address _account\r\n    ) public {\r\n        require(msg.sender == adminContract.admin(), \"Not Allowed\");\r\n        require(address(teachers[_account]) == address(0), \"Teacher already exists\");\r\n\r\n        Teacher newTeacher = new Teacher(_ipfsHash_photo, _id, _name, _subject, _gmail, _account, adminContract.admin());\r\n        teachers[_account] = newTeacher;\r\n        teacherAccounts.push(_account);\r\n\r\n        emit TeacherCreated(msg.sender, address(newTeacher), _name, _subject, _account);\r\n    }\r\n\r\n    function getTeachersWithUpdateRequests() public view returns (address[] memory) {\r\n        address[] memory teachersWithRequests = new address[](teacherAccounts.length);\r\n        uint256 count = 0;\r\n\r\n        for (uint256 i = 0; i < teacherAccounts.length; i++) {\r\n            Teacher teacher = teachers[teacherAccounts[i]];\r\n            if (teacher.isDetailsRequested()) { // Renamed function\r\n                teachersWithRequests[count] = teacherAccounts[i];\r\n                count++;\r\n            }\r\n        }\r\n\r\n        address[] memory result = new address[](count);\r\n        for (uint256 i = 0; i < count; i++) {\r\n            result[i] = teachersWithRequests[i];\r\n        }\r\n        return result;\r\n    }\r\n\r\n    function deleteTeacher(address _account) public {\r\n        require(msg.sender == adminContract.admin(), \"Not Allowed\");\r\n        require(address(teachers[_account]) != address(0), \"Teacher does not exist\");\r\n\r\n        delete teachers[_account];\r\n\r\n        // Remove the teacher from the accounts list\r\n        for (uint256 i = 0; i < teacherAccounts.length; i++) {\r\n            if (teacherAccounts[i] == _account) {\r\n                teacherAccounts[i] = teacherAccounts[teacherAccounts.length - 1];\r\n                teacherAccounts.pop();\r\n                break;\r\n            }\r\n        }\r\n\r\n        emit TeacherDeleted(msg.sender, _account);\r\n    }\r\n\r\n    function isTeacher(address _account) public view returns (bool) {\r\n        return address(teachers[_account]) != address(0);\r\n    }\r\n    \r\n    function getTeacher(address _account) public view returns (address) {\r\n        return address(teachers[_account]);\r\n    }\r\n\r\n    function getAllTeachers() public view returns (address[] memory) {\r\n        return teacherAccounts;\r\n    }\r\n\r\n    function getAdminAddress() public view returns (address) {\r\n        return adminContract.admin();\r\n    }\r\n}\r\n\r\ncontract Teacher {\r\n    string public ipfsHash_photo;\r\n    string public id;\r\n    string public name;\r\n    string public subject;\r\n    string public gmail;\r\n    address public account;\r\n    address public admin;\r\n    bool public detailsRequestedFlag;\r\n\r\n    event AddSpreadsheet(address indexed eventCaller); // Event name adjusted to match Solidity convention\r\n    event UpdateDetails(address indexed eventCaller); // Adjusted naming\r\n\r\n    struct GoogleSpreadSheet {\r\n        string sheetlink;\r\n        string title;\r\n    } \r\n\r\n    mapping(string => GoogleSpreadSheet) private spreadsheets;\r\n    GoogleSpreadSheet[] private studentSpreadsheets;\r\n\r\n    constructor(\r\n        string memory _ipfsHash_photo,\r\n        string memory _id,\r\n        string memory _name,\r\n        string memory _subject,\r\n        string memory _gmail,\r\n        address _account,\r\n        address _admin\r\n    ) {\r\n        ipfsHash_photo = _ipfsHash_photo;\r\n        id = _id;\r\n        name = _name;\r\n        subject = _subject;\r\n        gmail = _gmail;\r\n        account = _account;\r\n        admin = _admin; // Set the admin address from the factory\r\n        detailsRequestedFlag = false;\r\n    }\r\n\r\n    modifier onlyAdmin() {\r\n        require(msg.sender == admin, \"Only admin can manage teacher details\");\r\n        _;\r\n    }\r\n\r\n    function addSpreadSheet(string memory _sheetlink, string memory _title) public {\r\n        require(msg.sender == account, \"Only teacher can add\");\r\n        GoogleSpreadSheet memory newSpreadSheet = GoogleSpreadSheet({\r\n            sheetlink: _sheetlink,\r\n            title: _title\r\n        });\r\n        spreadsheets[_sheetlink] = newSpreadSheet;\r\n        studentSpreadsheets.push(newSpreadSheet);\r\n        emit AddSpreadsheet(msg.sender);\r\n    }\r\n\r\n    function getSpreadSheets() public view returns (GoogleSpreadSheet[] memory) {\r\n        return studentSpreadsheets;\r\n    }\r\n\r\n    function getSpreadSheet(string memory _sheetlink) public view returns (GoogleSpreadSheet memory) {\r\n        require(bytes(spreadsheets[_sheetlink].sheetlink).length > 0, \"Spreadsheet not found\");\r\n        return spreadsheets[_sheetlink];\r\n    }\r\n\r\n    function requestDetailsUpdate() public {\r\n        require(msg.sender == account, \"Only teacher can request updates\");\r\n        require(!detailsRequestedFlag, \"Update already requested\");\r\n        detailsRequestedFlag = true;\r\n    }\r\n\r\n    function updateDetails(string memory _id, string memory _name, string memory _subject, string memory _gmail) public onlyAdmin {\r\n        id = _id;\r\n        name = _name;\r\n        subject = _subject;\r\n        gmail = _gmail;\r\n        detailsRequestedFlag = false;\r\n        emit UpdateDetails(msg.sender);\r\n    }\r\n\r\n    function updateSubject(string memory _subject) public onlyAdmin {\r\n        subject = _subject;\r\n    }\r\n\r\n    function isDetailsRequested() public view returns (bool) {\r\n        return detailsRequestedFlag; // Renamed variable\r\n    }\r\n}\r\n",
  "sourcePath": "E:\\SGP\\StudentManagement_SGP\\contracts\\TeacherFactory.sol",
  "compiler": {
    "name": "solc",
    "version": "0.8.9+commit.e5eed63a.Emscripten.clang"
  },
  "schemaVersion": "3.4.16",
  "updatedAt": "2024-10-09T07:40:41.246Z",
  "devdoc": {
    "kind": "dev",
    "methods": {},
    "version": 1
  },
  "userdoc": {
    "kind": "user",
    "methods": {},
    "version": 1
  }
}