{
  "contractName": "ResultContract",
  "abi": [
    {
      "inputs": [
        {
          "internalType": "address",
          "name": "_adminAddress",
          "type": "address"
        },
        {
          "internalType": "address",
          "name": "_studentFactoryAddress",
          "type": "address"
        },
        {
          "internalType": "address",
          "name": "_teacherFactoryAddress",
          "type": "address"
        }
      ],
      "stateMutability": "nonpayable",
      "type": "constructor"
    },
    {
      "anonymous": false,
      "inputs": [
        {
          "indexed": false,
          "internalType": "address",
          "name": "EventCaller",
          "type": "address"
        }
      ],
      "name": "addStudentResultevent",
      "type": "event"
    },
    {
      "anonymous": false,
      "inputs": [
        {
          "indexed": false,
          "internalType": "address",
          "name": "EventCaller",
          "type": "address"
        }
      ],
      "name": "createSemesterResultevent",
      "type": "event"
    },
    {
      "inputs": [],
      "name": "adminContract",
      "outputs": [
        {
          "internalType": "contract Admin",
          "name": "",
          "type": "address"
        }
      ],
      "stateMutability": "view",
      "type": "function",
      "constant": true
    },
    {
      "inputs": [],
      "name": "semesterCount",
      "outputs": [
        {
          "internalType": "uint256",
          "name": "",
          "type": "uint256"
        }
      ],
      "stateMutability": "view",
      "type": "function",
      "constant": true
    },
    {
      "inputs": [
        {
          "internalType": "uint256",
          "name": "",
          "type": "uint256"
        }
      ],
      "name": "semesterResults",
      "outputs": [
        {
          "internalType": "string",
          "name": "semesterName",
          "type": "string"
        }
      ],
      "stateMutability": "view",
      "type": "function",
      "constant": true
    },
    {
      "inputs": [],
      "name": "studentFactory",
      "outputs": [
        {
          "internalType": "contract StudentFactory",
          "name": "",
          "type": "address"
        }
      ],
      "stateMutability": "view",
      "type": "function",
      "constant": true
    },
    {
      "inputs": [],
      "name": "teacherFactory",
      "outputs": [
        {
          "internalType": "contract TeacherFactory",
          "name": "",
          "type": "address"
        }
      ],
      "stateMutability": "view",
      "type": "function",
      "constant": true
    },
    {
      "inputs": [
        {
          "internalType": "string",
          "name": "_semesterName",
          "type": "string"
        }
      ],
      "name": "createSemesterResult",
      "outputs": [],
      "stateMutability": "nonpayable",
      "type": "function"
    },
    {
      "inputs": [
        {
          "internalType": "uint256",
          "name": "_semesterId",
          "type": "uint256"
        },
        {
          "internalType": "address",
          "name": "_student",
          "type": "address"
        },
        {
          "internalType": "string",
          "name": "_resultHash",
          "type": "string"
        }
      ],
      "name": "addStudentResult",
      "outputs": [],
      "stateMutability": "nonpayable",
      "type": "function"
    },
    {
      "inputs": [
        {
          "internalType": "uint256",
          "name": "_semesterId",
          "type": "uint256"
        },
        {
          "internalType": "address",
          "name": "_student",
          "type": "address"
        }
      ],
      "name": "getStudentResult",
      "outputs": [
        {
          "internalType": "string",
          "name": "",
          "type": "string"
        }
      ],
      "stateMutability": "view",
      "type": "function",
      "constant": true
    },
    {
      "inputs": [
        {
          "internalType": "uint256",
          "name": "_semesterId",
          "type": "uint256"
        }
      ],
      "name": "getAllStudentsForSemester",
      "outputs": [
        {
          "internalType": "address[]",
          "name": "",
          "type": "address[]"
        }
      ],
      "stateMutability": "view",
      "type": "function",
      "constant": true
    },
    {
      "inputs": [
        {
          "internalType": "uint256",
          "name": "_semesterId",
          "type": "uint256"
        },
        {
          "internalType": "address",
          "name": "_student",
          "type": "address"
        },
        {
          "internalType": "string",
          "name": "_hashToCheck",
          "type": "string"
        }
      ],
      "name": "verifyResult",
      "outputs": [
        {
          "internalType": "bool",
          "name": "",
          "type": "bool"
        }
      ],
      "stateMutability": "view",
      "type": "function",
      "constant": true
    }
  ],
  "bytecode": "0x608060405260006004553480156200001657600080fd5b50604051620018083803806200180883398181016040528101906200003c919062000171565b826000806101000a81548173ffffffffffffffffffffffffffffffffffffffff021916908373ffffffffffffffffffffffffffffffffffffffff16021790555081600160006101000a81548173ffffffffffffffffffffffffffffffffffffffff021916908373ffffffffffffffffffffffffffffffffffffffff16021790555080600260006101000a81548173ffffffffffffffffffffffffffffffffffffffff021916908373ffffffffffffffffffffffffffffffffffffffff160217905550505050620001cd565b600080fd5b600073ffffffffffffffffffffffffffffffffffffffff82169050919050565b600062000139826200010c565b9050919050565b6200014b816200012c565b81146200015757600080fd5b50565b6000815190506200016b8162000140565b92915050565b6000806000606084860312156200018d576200018c62000107565b5b60006200019d868287016200015a565b9350506020620001b0868287016200015a565b9250506040620001c3868287016200015a565b9150509250925092565b61162b80620001dd6000396000f3fe608060405234801561001057600080fd5b506004361061009e5760003560e01c8063766012ec11610066578063766012ec1461015957806390b85f90146101895780639cfd2ab1146101a7578063bcd11922146101d7578063c05c5e94146101f55761009e565b8063275eae12146100a3578063278e4aa0146100bf578063325f07f0146100dd5780633ffa5193146100f95780636b330b5f14610129575b600080fd5b6100bd60048036038101906100b89190610d5c565b610213565b005b6100c761051d565b6040516100d49190610e2a565b60405180910390f35b6100f760048036038101906100f29190610e45565b610543565b005b610113600480360381019061010e9190610e8e565b6106cd565b6040516101209190610f56565b60405180910390f35b610143600480360381019061013e9190610f78565b6107fa565b6040516101509190611063565b60405180910390f35b610173600480360381019061016e9190610f78565b6108e2565b6040516101809190610f56565b60405180910390f35b610191610988565b60405161019e9190611094565b60405180910390f35b6101c160048036038101906101bc9190610d5c565b61098e565b6040516101ce91906110ca565b60405180910390f35b6101df610a81565b6040516101ec9190611106565b60405180910390f35b6101fd610aa7565b60405161020a9190611142565b60405180910390f35b81600260009054906101000a900473ffffffffffffffffffffffffffffffffffffffff1673ffffffffffffffffffffffffffffffffffffffff1663aec37eb3336040518263ffffffff1660e01b815260040161026f919061116c565b60206040518083038186803b15801561028757600080fd5b505afa15801561029b573d6000803e3d6000fd5b505050506040513d601f19601f820116820180604052508101906102bf91906111b3565b6102fe576040517f08c379a00000000000000000000000000000000000000000000000000000000081526004016102f59061122c565b60405180910390fd5b6004548410610342576040517f08c379a000000000000000000000000000000000000000000000000000000000815260040161033990611298565b60405180910390fd5b60006003600086815260200190815260200160002060010160008573ffffffffffffffffffffffffffffffffffffffff1673ffffffffffffffffffffffffffffffffffffffff16815260200190815260200160002060000180546103a5906112e7565b9050146103e7576040517f08c379a00000000000000000000000000000000000000000000000000000000081526004016103de9061138b565b60405180910390fd5b6040518060200160405280838152506003600086815260200190815260200160002060010160008573ffffffffffffffffffffffffffffffffffffffff1673ffffffffffffffffffffffffffffffffffffffff1681526020019081526020016000206000820151816000019080519060200190610465929190610acb565b5090505060036000858152602001908152602001600020600201839080600181540180825580915050600190039060005260206000200160009091909190916101000a81548173ffffffffffffffffffffffffffffffffffffffff021916908373ffffffffffffffffffffffffffffffffffffffff1602179055507f1fdb9206ada4be8a167826617d5393fc9e341c1aa74144a3d84404d7fad9efde3360405161050f919061116c565b60405180910390a150505050565b600260009054906101000a900473ffffffffffffffffffffffffffffffffffffffff1681565b60008054906101000a900473ffffffffffffffffffffffffffffffffffffffff1673ffffffffffffffffffffffffffffffffffffffff1663f851a4406040518163ffffffff1660e01b815260040160206040518083038186803b1580156105a957600080fd5b505afa1580156105bd573d6000803e3d6000fd5b505050506040513d601f19601f820116820180604052508101906105e191906113c0565b73ffffffffffffffffffffffffffffffffffffffff163373ffffffffffffffffffffffffffffffffffffffff161461064e576040517f08c379a00000000000000000000000000000000000000000000000000000000081526004016106459061145f565b60405180910390fd5b80600360006004548152602001908152602001600020600001908051906020019061067a929190610acb565b506004600081548092919061068e906114ae565b91905055507ffea0a914c8d407abc59545cd2784c9546fe94d5c111062ed3a924a461976d001336040516106c2919061116c565b60405180910390a150565b60606004548310610713576040517f08c379a000000000000000000000000000000000000000000000000000000000815260040161070a90611298565b60405180910390fd5b6003600084815260200190815260200160002060010160008373ffffffffffffffffffffffffffffffffffffffff1673ffffffffffffffffffffffffffffffffffffffff1681526020019081526020016000206000018054610774906112e7565b80601f01602080910402602001604051908101604052809291908181526020018280546107a0906112e7565b80156107ed5780601f106107c2576101008083540402835291602001916107ed565b820191906000526020600020905b8154815290600101906020018083116107d057829003601f168201915b5050505050905092915050565b60606004548210610840576040517f08c379a000000000000000000000000000000000000000000000000000000000815260040161083790611298565b60405180910390fd5b600360008381526020019081526020016000206002018054806020026020016040519081016040528092919081815260200182805480156108d657602002820191906000526020600020905b8160009054906101000a900473ffffffffffffffffffffffffffffffffffffffff1673ffffffffffffffffffffffffffffffffffffffff168152602001906001019080831161088c575b50505050509050919050565b6003602052806000526040600020600091509050806000018054610905906112e7565b80601f0160208091040260200160405190810160405280929190818152602001828054610931906112e7565b801561097e5780601f106109535761010080835404028352916020019161097e565b820191906000526020600020905b81548152906001019060200180831161096157829003601f168201915b5050505050905081565b60045481565b600060045484106109d4576040517f08c379a00000000000000000000000000000000000000000000000000000000081526004016109cb90611298565b60405180910390fd5b816040516020016109e59190611533565b604051602081830303815290604052805190602001206003600086815260200190815260200160002060010160008573ffffffffffffffffffffffffffffffffffffffff1673ffffffffffffffffffffffffffffffffffffffff168152602001908152602001600020600001604051602001610a6191906115de565b604051602081830303815290604052805190602001201490509392505050565b600160009054906101000a900473ffffffffffffffffffffffffffffffffffffffff1681565b60008054906101000a900473ffffffffffffffffffffffffffffffffffffffff1681565b828054610ad7906112e7565b90600052602060002090601f016020900481019282610af95760008555610b40565b82601f10610b1257805160ff1916838001178555610b40565b82800160010185558215610b40579182015b82811115610b3f578251825591602001919060010190610b24565b5b509050610b4d9190610b51565b5090565b5b80821115610b6a576000816000905550600101610b52565b5090565b6000604051905090565b600080fd5b600080fd5b6000819050919050565b610b9581610b82565b8114610ba057600080fd5b50565b600081359050610bb281610b8c565b92915050565b600073ffffffffffffffffffffffffffffffffffffffff82169050919050565b6000610be382610bb8565b9050919050565b610bf381610bd8565b8114610bfe57600080fd5b50565b600081359050610c1081610bea565b92915050565b600080fd5b600080fd5b6000601f19601f8301169050919050565b7f4e487b7100000000000000000000000000000000000000000000000000000000600052604160045260246000fd5b610c6982610c20565b810181811067ffffffffffffffff82111715610c8857610c87610c31565b5b80604052505050565b6000610c9b610b6e565b9050610ca78282610c60565b919050565b600067ffffffffffffffff821115610cc757610cc6610c31565b5b610cd082610c20565b9050602081019050919050565b82818337600083830152505050565b6000610cff610cfa84610cac565b610c91565b905082815260208101848484011115610d1b57610d1a610c1b565b5b610d26848285610cdd565b509392505050565b600082601f830112610d4357610d42610c16565b5b8135610d53848260208601610cec565b91505092915050565b600080600060608486031215610d7557610d74610b78565b5b6000610d8386828701610ba3565b9350506020610d9486828701610c01565b925050604084013567ffffffffffffffff811115610db557610db4610b7d565b5b610dc186828701610d2e565b9150509250925092565b6000819050919050565b6000610df0610deb610de684610bb8565b610dcb565b610bb8565b9050919050565b6000610e0282610dd5565b9050919050565b6000610e1482610df7565b9050919050565b610e2481610e09565b82525050565b6000602082019050610e3f6000830184610e1b565b92915050565b600060208284031215610e5b57610e5a610b78565b5b600082013567ffffffffffffffff811115610e7957610e78610b7d565b5b610e8584828501610d2e565b91505092915050565b60008060408385031215610ea557610ea4610b78565b5b6000610eb385828601610ba3565b9250506020610ec485828601610c01565b9150509250929050565b600081519050919050565b600082825260208201905092915050565b60005b83811015610f08578082015181840152602081019050610eed565b83811115610f17576000848401525b50505050565b6000610f2882610ece565b610f328185610ed9565b9350610f42818560208601610eea565b610f4b81610c20565b840191505092915050565b60006020820190508181036000830152610f708184610f1d565b905092915050565b600060208284031215610f8e57610f8d610b78565b5b6000610f9c84828501610ba3565b91505092915050565b600081519050919050565b600082825260208201905092915050565b6000819050602082019050919050565b610fda81610bd8565b82525050565b6000610fec8383610fd1565b60208301905092915050565b6000602082019050919050565b600061101082610fa5565b61101a8185610fb0565b935061102583610fc1565b8060005b8381101561105657815161103d8882610fe0565b975061104883610ff8565b925050600181019050611029565b5085935050505092915050565b6000602082019050818103600083015261107d8184611005565b905092915050565b61108e81610b82565b82525050565b60006020820190506110a96000830184611085565b92915050565b60008115159050919050565b6110c4816110af565b82525050565b60006020820190506110df60008301846110bb565b92915050565b60006110f082610df7565b9050919050565b611100816110e5565b82525050565b600060208201905061111b60008301846110f7565b92915050565b600061112c82610df7565b9050919050565b61113c81611121565b82525050565b60006020820190506111576000830184611133565b92915050565b61116681610bd8565b82525050565b6000602082019050611181600083018461115d565b92915050565b611190816110af565b811461119b57600080fd5b50565b6000815190506111ad81611187565b92915050565b6000602082840312156111c9576111c8610b78565b5b60006111d78482850161119e565b91505092915050565b7f4f6e6c79206120746561636865722063616e2061646420726573756c74730000600082015250565b6000611216601e83610ed9565b9150611221826111e0565b602082019050919050565b6000602082019050818103600083015261124581611209565b9050919050565b7f53656d657374657220646f6573206e6f74206578697374000000000000000000600082015250565b6000611282601783610ed9565b915061128d8261124c565b602082019050919050565b600060208201905081810360008301526112b181611275565b9050919050565b7f4e487b7100000000000000000000000000000000000000000000000000000000600052602260045260246000fd5b600060028204905060018216806112ff57607f821691505b60208210811415611313576113126112b8565b5b50919050565b7f526573756c7420616c72656164792065786973747320666f722074686973207360008201527f747564656e740000000000000000000000000000000000000000000000000000602082015250565b6000611375602683610ed9565b915061138082611319565b604082019050919050565b600060208201905081810360008301526113a481611368565b9050919050565b6000815190506113ba81610bea565b92915050565b6000602082840312156113d6576113d5610b78565b5b60006113e4848285016113ab565b91505092915050565b7f4f6e6c792061646d696e2063616e20706572666f726d2074686973206163746960008201527f6f6e000000000000000000000000000000000000000000000000000000000000602082015250565b6000611449602283610ed9565b9150611454826113ed565b604082019050919050565b600060208201905081810360008301526114788161143c565b9050919050565b7f4e487b7100000000000000000000000000000000000000000000000000000000600052601160045260246000fd5b60006114b982610b82565b91507fffffffffffffffffffffffffffffffffffffffffffffffffffffffffffffffff8214156114ec576114eb61147f565b5b600182019050919050565b600081905092915050565b600061150d82610ece565b61151781856114f7565b9350611527818560208601610eea565b80840191505092915050565b600061153f8284611502565b915081905092915050565b60008190508160005260206000209050919050565b6000815461156c816112e7565b61157681866114f7565b9450600182166000811461159157600181146115a2576115d5565b60ff198316865281860193506115d5565b6115ab8561154a565b60005b838110156115cd578154818901526001820191506020810190506115ae565b838801955050505b50505092915050565b60006115ea828461155f565b91508190509291505056fea264697066735822122021e3f8fc62f6816579fa9fbc5b84e1bae2c71e69f0d1836ea7667dbf02a1689664736f6c63430008090033",
  "immutableReferences": {},
  "source": "// SPDX-License-Identifier: MIT\r\npragma solidity ^0.8.0;\r\n\r\nimport \"./Admin.sol\"; \r\nimport \"./StudentFactory.sol\"; \r\nimport \"./TeacherFactory.sol\"; \r\n\r\ncontract ResultContract {\r\n    Admin public adminContract;\r\n    StudentFactory public studentFactory; \r\n    TeacherFactory public teacherFactory; \r\n\r\n    struct Result {\r\n        string resultHash; \r\n    }\r\n\r\n    struct SemesterResult {\r\n        string semesterName;\r\n        mapping(address => Result) studentResults; \r\n        address[] studentAddresses; \r\n    }\r\n\r\n    event createSemesterResultevent(address EventCaller);\r\n    event addStudentResultevent(address EventCaller);\r\n\r\n    mapping(uint256 => SemesterResult) public semesterResults;\r\n    uint256 public semesterCount = 0; \r\n\r\n    modifier onlyAdmin() {\r\n        require(msg.sender == adminContract.admin(), \"Only admin can perform this action\");\r\n        _;\r\n    }\r\n\r\n    modifier onlyAssignedTeacher(address _student) {\r\n        require(teacherFactory.isTeacher(msg.sender), \"Only a teacher can add results\");\r\n        _;\r\n    }\r\n\r\n    constructor(address _adminAddress, address _studentFactoryAddress, address _teacherFactoryAddress) {\r\n        adminContract = Admin(_adminAddress);\r\n        studentFactory = StudentFactory(_studentFactoryAddress);\r\n        teacherFactory = TeacherFactory(_teacherFactoryAddress);\r\n    }\r\n\r\n    function createSemesterResult(string memory _semesterName) public onlyAdmin {\r\n        semesterResults[semesterCount].semesterName = _semesterName;\r\n        semesterCount++;\r\n        emit createSemesterResultevent(msg.sender);\r\n    }\r\n\r\n    function addStudentResult(\r\n        uint256 _semesterId,\r\n        address _student,\r\n        string memory _resultHash\r\n    ) public onlyAssignedTeacher(_student) {\r\n        require(_semesterId < semesterCount, \"Semester does not exist\");\r\n        require(bytes(semesterResults[_semesterId].studentResults[_student].resultHash).length == 0, \"Result already exists for this student\");\r\n\r\n        semesterResults[_semesterId].studentResults[_student] = Result(_resultHash);\r\n        semesterResults[_semesterId].studentAddresses.push(_student); \r\n        emit addStudentResultevent(msg.sender);\r\n    }\r\n\r\n    function getStudentResult(uint256 _semesterId, address _student) public view returns (string memory) {\r\n        require(_semesterId < semesterCount, \"Semester does not exist\");\r\n        return semesterResults[_semesterId].studentResults[_student].resultHash;\r\n    }\r\n\r\n    function getAllStudentsForSemester(uint256 _semesterId) public view returns (address[] memory) {\r\n        require(_semesterId < semesterCount, \"Semester does not exist\");\r\n        return semesterResults[_semesterId].studentAddresses;\r\n    }\r\n\r\n    function verifyResult(\r\n        uint256 _semesterId,\r\n        address _student,\r\n        string memory _hashToCheck\r\n    ) public view returns (bool) {\r\n        require(_semesterId < semesterCount, \"Semester does not exist\");\r\n\r\n        return keccak256(abi.encodePacked(semesterResults[_semesterId].studentResults[_student].resultHash)) \r\n               == keccak256(abi.encodePacked(_hashToCheck));\r\n    }\r\n}",
  "sourcePath": "E:\\SGP\\StudentManagement_SGP\\contracts\\ResultContract.sol",
  "compiler": {
    "name": "solc",
    "version": "0.8.9+commit.e5eed63a.Emscripten.clang"
  },
  "schemaVersion": "3.4.16",
  "updatedAt": "2024-10-09T07:40:48.416Z",
  "networkType": "ethereum",
  "devdoc": {
    "kind": "dev",
    "methods": {},
    "version": 1
  },
  "userdoc": {
    "kind": "user",
    "methods": {},
    "version": 1
  }
}