{
  "contractName": "Student",
  "abi": [
    {
      "inputs": [
        {
          "internalType": "string",
          "name": "_ipfsHash_photo",
          "type": "string"
        },
        {
          "internalType": "string",
          "name": "_id",
          "type": "string"
        },
        {
          "internalType": "string",
          "name": "_name",
          "type": "string"
        },
        {
          "internalType": "uint256",
          "name": "_age",
          "type": "uint256"
        },
        {
          "internalType": "string",
          "name": "_gmail",
          "type": "string"
        },
        {
          "internalType": "uint256",
          "name": "_mobileno",
          "type": "uint256"
        },
        {
          "internalType": "string",
          "name": "_course",
          "type": "string"
        },
        {
          "internalType": "address",
          "name": "_account",
          "type": "address"
        },
        {
          "internalType": "address",
          "name": "_admin",
          "type": "address"
        }
      ],
      "stateMutability": "nonpayable",
      "type": "constructor"
    },
    {
      "anonymous": false,
      "inputs": [
        {
          "indexed": true,
          "internalType": "address",
          "name": "eventCaller",
          "type": "address"
        }
      ],
      "name": "addCertificateEvent",
      "type": "event"
    },
    {
      "anonymous": false,
      "inputs": [
        {
          "indexed": true,
          "internalType": "address",
          "name": "eventCaller",
          "type": "address"
        }
      ],
      "name": "addEventRemarkEvent",
      "type": "event"
    },
    {
      "anonymous": false,
      "inputs": [
        {
          "indexed": true,
          "internalType": "address",
          "name": "eventCaller",
          "type": "address"
        }
      ],
      "name": "updateDetailsEvent",
      "type": "event"
    },
    {
      "inputs": [],
      "name": "account",
      "outputs": [
        {
          "internalType": "address",
          "name": "",
          "type": "address"
        }
      ],
      "stateMutability": "view",
      "type": "function"
    },
    {
      "inputs": [],
      "name": "admin",
      "outputs": [
        {
          "internalType": "address",
          "name": "",
          "type": "address"
        }
      ],
      "stateMutability": "view",
      "type": "function"
    },
    {
      "inputs": [],
      "name": "age",
      "outputs": [
        {
          "internalType": "uint256",
          "name": "",
          "type": "uint256"
        }
      ],
      "stateMutability": "view",
      "type": "function"
    },
    {
      "inputs": [],
      "name": "course",
      "outputs": [
        {
          "internalType": "string",
          "name": "",
          "type": "string"
        }
      ],
      "stateMutability": "view",
      "type": "function"
    },
    {
      "inputs": [],
      "name": "detailsRequested",
      "outputs": [
        {
          "internalType": "bool",
          "name": "",
          "type": "bool"
        }
      ],
      "stateMutability": "view",
      "type": "function"
    },
    {
      "inputs": [],
      "name": "gmail",
      "outputs": [
        {
          "internalType": "string",
          "name": "",
          "type": "string"
        }
      ],
      "stateMutability": "view",
      "type": "function"
    },
    {
      "inputs": [],
      "name": "id",
      "outputs": [
        {
          "internalType": "string",
          "name": "",
          "type": "string"
        }
      ],
      "stateMutability": "view",
      "type": "function"
    },
    {
      "inputs": [],
      "name": "ipfsHash_photo",
      "outputs": [
        {
          "internalType": "string",
          "name": "",
          "type": "string"
        }
      ],
      "stateMutability": "view",
      "type": "function"
    },
    {
      "inputs": [],
      "name": "mobile_no",
      "outputs": [
        {
          "internalType": "uint256",
          "name": "",
          "type": "uint256"
        }
      ],
      "stateMutability": "view",
      "type": "function"
    },
    {
      "inputs": [],
      "name": "name",
      "outputs": [
        {
          "internalType": "string",
          "name": "",
          "type": "string"
        }
      ],
      "stateMutability": "view",
      "type": "function"
    },
    {
      "inputs": [],
      "name": "remarks",
      "outputs": [
        {
          "internalType": "string",
          "name": "",
          "type": "string"
        }
      ],
      "stateMutability": "view",
      "type": "function"
    },
    {
      "inputs": [],
      "name": "teacher",
      "outputs": [
        {
          "internalType": "address",
          "name": "",
          "type": "address"
        }
      ],
      "stateMutability": "view",
      "type": "function"
    },
    {
      "inputs": [
        {
          "internalType": "string",
          "name": "_eventName",
          "type": "string"
        },
        {
          "internalType": "uint256",
          "name": "_eventDate",
          "type": "uint256"
        },
        {
          "internalType": "string",
          "name": "_fileHash",
          "type": "string"
        },
        {
          "internalType": "string",
          "name": "_eventRemark",
          "type": "string"
        }
      ],
      "name": "addCertificate",
      "outputs": [],
      "stateMutability": "nonpayable",
      "type": "function"
    },
    {
      "inputs": [],
      "name": "getCertificates",
      "outputs": [
        {
          "components": [
            {
              "internalType": "string",
              "name": "eventName",
              "type": "string"
            },
            {
              "internalType": "uint256",
              "name": "eventDate",
              "type": "uint256"
            },
            {
              "internalType": "string",
              "name": "fileHash",
              "type": "string"
            },
            {
              "internalType": "string",
              "name": "eventRemark",
              "type": "string"
            }
          ],
          "internalType": "struct Student.EventCertificate[]",
          "name": "",
          "type": "tuple[]"
        }
      ],
      "stateMutability": "view",
      "type": "function"
    },
    {
      "inputs": [
        {
          "internalType": "string",
          "name": "_fileHash",
          "type": "string"
        }
      ],
      "name": "getCertificate",
      "outputs": [
        {
          "components": [
            {
              "internalType": "string",
              "name": "eventName",
              "type": "string"
            },
            {
              "internalType": "uint256",
              "name": "eventDate",
              "type": "uint256"
            },
            {
              "internalType": "string",
              "name": "fileHash",
              "type": "string"
            },
            {
              "internalType": "string",
              "name": "eventRemark",
              "type": "string"
            }
          ],
          "internalType": "struct Student.EventCertificate",
          "name": "",
          "type": "tuple"
        }
      ],
      "stateMutability": "view",
      "type": "function"
    },
    {
      "inputs": [
        {
          "internalType": "string",
          "name": "_fileHash",
          "type": "string"
        },
        {
          "internalType": "string",
          "name": "_newRemark",
          "type": "string"
        }
      ],
      "name": "addEventRemark",
      "outputs": [],
      "stateMutability": "nonpayable",
      "type": "function"
    },
    {
      "inputs": [],
      "name": "requestDetailsUpdate",
      "outputs": [],
      "stateMutability": "nonpayable",
      "type": "function"
    },
    {
      "inputs": [
        {
          "internalType": "string",
          "name": "_id",
          "type": "string"
        },
        {
          "internalType": "string",
          "name": "_name",
          "type": "string"
        },
        {
          "internalType": "uint256",
          "name": "_age",
          "type": "uint256"
        },
        {
          "internalType": "string",
          "name": "_gmail",
          "type": "string"
        },
        {
          "internalType": "uint256",
          "name": "_mobileno",
          "type": "uint256"
        },
        {
          "internalType": "string",
          "name": "_course",
          "type": "string"
        }
      ],
      "name": "updateDetails",
      "outputs": [],
      "stateMutability": "nonpayable",
      "type": "function"
    },
    {
      "inputs": [
        {
          "internalType": "address",
          "name": "_teacher",
          "type": "address"
        }
      ],
      "name": "assignteacher",
      "outputs": [],
      "stateMutability": "nonpayable",
      "type": "function"
    },
    {
      "inputs": [
        {
          "internalType": "string",
          "name": "_remarks",
          "type": "string"
        }
      ],
      "name": "addRemarks",
      "outputs": [],
      "stateMutability": "nonpayable",
      "type": "function"
    }
  ],
  "bytecode": "0x60806040523480156200001157600080fd5b506040516200250c3803806200250c83398181016040528101906200003791906200045b565b88600a90805190602001906200004f9291906200016e565b508760009080519060200190620000689291906200016e565b508660019080519060200190620000819291906200016e565b50856002819055508460039080519060200190620000a19291906200016e565b50836004819055508260059080519060200190620000c19291906200016e565b5081600660006101000a81548173ffffffffffffffffffffffffffffffffffffffff021916908373ffffffffffffffffffffffffffffffffffffffff16021790555080600860006101000a81548173ffffffffffffffffffffffffffffffffffffffff021916908373ffffffffffffffffffffffffffffffffffffffff1602179055506000600660146101000a81548160ff0219169083151502179055505050505050505050506200063a565b8280546200017c9062000604565b90600052602060002090601f016020900481019282620001a05760008555620001ec565b82601f10620001bb57805160ff1916838001178555620001ec565b82800160010185558215620001ec579182015b82811115620001eb578251825591602001919060010190620001ce565b5b509050620001fb9190620001ff565b5090565b5b808211156200021a57600081600090555060010162000200565b5090565b6000604051905090565b600080fd5b600080fd5b600080fd5b600080fd5b6000601f19601f8301169050919050565b7f4e487b7100000000000000000000000000000000000000000000000000000000600052604160045260246000fd5b62000287826200023c565b810181811067ffffffffffffffff82111715620002a957620002a86200024d565b5b80604052505050565b6000620002be6200021e565b9050620002cc82826200027c565b919050565b600067ffffffffffffffff821115620002ef57620002ee6200024d565b5b620002fa826200023c565b9050602081019050919050565b60005b83811015620003275780820151818401526020810190506200030a565b8381111562000337576000848401525b50505050565b6000620003546200034e84620002d1565b620002b2565b90508281526020810184848401111562000373576200037262000237565b5b6200038084828562000307565b509392505050565b600082601f830112620003a0576200039f62000232565b5b8151620003b28482602086016200033d565b91505092915050565b6000819050919050565b620003d081620003bb565b8114620003dc57600080fd5b50565b600081519050620003f081620003c5565b92915050565b600073ffffffffffffffffffffffffffffffffffffffff82169050919050565b60006200042382620003f6565b9050919050565b620004358162000416565b81146200044157600080fd5b50565b60008151905062000455816200042a565b92915050565b60008060008060008060008060006101208a8c03121562000481576200048062000228565b5b60008a015167ffffffffffffffff811115620004a257620004a16200022d565b5b620004b08c828d0162000388565b99505060208a015167ffffffffffffffff811115620004d457620004d36200022d565b5b620004e28c828d0162000388565b98505060408a015167ffffffffffffffff8111156200050657620005056200022d565b5b620005148c828d0162000388565b9750506060620005278c828d01620003df565b96505060808a015167ffffffffffffffff8111156200054b576200054a6200022d565b5b620005598c828d0162000388565b95505060a06200056c8c828d01620003df565b94505060c08a015167ffffffffffffffff81111562000590576200058f6200022d565b5b6200059e8c828d0162000388565b93505060e0620005b18c828d0162000444565b925050610100620005c58c828d0162000444565b9150509295985092959850929598565b7f4e487b7100000000000000000000000000000000000000000000000000000000600052602260045260246000fd5b600060028204905060018216806200061d57607f821691505b60208210811415620006345762000633620005d5565b5b50919050565b611ec2806200064a6000396000f3fe608060405234801561001057600080fd5b506004361061012c5760003560e01c806399a85226116100ad578063eabf375211610071578063eabf3752146102db578063ed0f2e75146102f7578063f649b9c314610327578063f65c762c14610343578063f851a4401461035f5761012c565b806399a8522614610259578063a0d807a914610277578063af640d0f14610281578063b46bff891461029f578063dcf63591146102bd5761012c565b8063440898a4116100f4578063440898a4146101c757806344410719146101e55780635457d05d146102035780635dab24201461021f5780637d54d3941461023d5761012c565b806306fdde03146101315780631f5ddb4f1461014f578063262a9dff1461016d5780632f9c2ae91461018b57806339aff60f146101a9575b600080fd5b61013961037d565b6040516101469190611426565b60405180910390f35b61015761040b565b60405161016491906115de565b60405180910390f35b61017561062a565b604051610182919061160f565b60405180910390f35b610193610630565b6040516101a09190611426565b60405180910390f35b6101b16106be565b6040516101be9190611645565b60405180910390f35b6101cf6106d1565b6040516101dc9190611426565b60405180910390f35b6101ed61075f565b6040516101fa9190611426565b60405180910390f35b61021d600480360381019061021891906117d5565b6107ed565b005b6102276109fe565b60405161023491906118d1565b60405180910390f35b610257600480360381019061025291906118ec565b610a24565b005b610261610ba1565b60405161026e919061160f565b60405180910390f35b61027f610ba7565b005b610289610ca4565b6040516102969190611426565b60405180910390f35b6102a7610d32565b6040516102b491906118d1565b60405180910390f35b6102c5610d58565b6040516102d29190611426565b60405180910390f35b6102f560048036038101906102f09190611964565b610de6565b005b610311600480360381019061030c9190611964565b610e90565b60405161031e9190611a1e565b60405180910390f35b610341600480360381019061033c9190611a40565b6110f8565b005b61035d60048036038101906103589190611b69565b611258565b005b61036761129c565b60405161037491906118d1565b60405180910390f35b6001805461038a90611bc5565b80601f01602080910402602001604051908101604052809291908181526020018280546103b690611bc5565b80156104035780601f106103d857610100808354040283529160200191610403565b820191906000526020600020905b8154815290600101906020018083116103e657829003601f168201915b505050505081565b6060600c805480602002602001604051908101604052809291908181526020016000905b82821015610621578382906000526020600020906004020160405180608001604052908160008201805461046290611bc5565b80601f016020809104026020016040519081016040528092919081815260200182805461048e90611bc5565b80156104db5780601f106104b0576101008083540402835291602001916104db565b820191906000526020600020905b8154815290600101906020018083116104be57829003601f168201915b50505050508152602001600182015481526020016002820180546104fe90611bc5565b80601f016020809104026020016040519081016040528092919081815260200182805461052a90611bc5565b80156105775780601f1061054c57610100808354040283529160200191610577565b820191906000526020600020905b81548152906001019060200180831161055a57829003601f168201915b5050505050815260200160038201805461059090611bc5565b80601f01602080910402602001604051908101604052809291908181526020018280546105bc90611bc5565b80156106095780601f106105de57610100808354040283529160200191610609565b820191906000526020600020905b8154815290600101906020018083116105ec57829003601f168201915b5050505050815250508152602001906001019061042f565b50505050905090565b60025481565b6007805461063d90611bc5565b80601f016020809104026020016040519081016040528092919081815260200182805461066990611bc5565b80156106b65780601f1061068b576101008083540402835291602001916106b6565b820191906000526020600020905b81548152906001019060200180831161069957829003601f168201915b505050505081565b600660149054906101000a900460ff1681565b600a80546106de90611bc5565b80601f016020809104026020016040519081016040528092919081815260200182805461070a90611bc5565b80156107575780601f1061072c57610100808354040283529160200191610757565b820191906000526020600020905b81548152906001019060200180831161073a57829003601f168201915b505050505081565b6003805461076c90611bc5565b80601f016020809104026020016040519081016040528092919081815260200182805461079890611bc5565b80156107e55780601f106107ba576101008083540402835291602001916107e5565b820191906000526020600020905b8154815290600101906020018083116107c857829003601f168201915b505050505081565b600660009054906101000a900473ffffffffffffffffffffffffffffffffffffffff1673ffffffffffffffffffffffffffffffffffffffff163373ffffffffffffffffffffffffffffffffffffffff161461087d576040517f08c379a000000000000000000000000000000000000000000000000000000000815260040161087490611c43565b60405180910390fd5b6000604051806080016040528086815260200185815260200184815260200183815250905080600b846040516108b39190611c9f565b908152602001604051809103902060008201518160000190805190602001906108dd9291906112c2565b506020820151816001015560408201518160020190805190602001906109049291906112c2565b5060608201518160030190805190602001906109219291906112c2565b50905050600c819080600181540180825580915050600190039060005260206000209060040201600090919091909150600082015181600001908051906020019061096d9291906112c2565b506020820151816001015560408201518160020190805190602001906109949291906112c2565b5060608201518160030190805190602001906109b19291906112c2565b5050503373ffffffffffffffffffffffffffffffffffffffff167fc53d5c68a764bbc8139a3730ed1128e35d47e80d6ad03a8be2db0e1e0d3f4eac60405160405180910390a25050505050565b600660009054906101000a900473ffffffffffffffffffffffffffffffffffffffff1681565b600960009054906101000a900473ffffffffffffffffffffffffffffffffffffffff1673ffffffffffffffffffffffffffffffffffffffff163373ffffffffffffffffffffffffffffffffffffffff1614610ab4576040517f08c379a0000000000000000000000000000000000000000000000000000000008152600401610aab90611d28565b60405180910390fd5b6000600b83604051610ac69190611c9f565b90815260200160405180910390206002018054610ae290611bc5565b905011610b24576040517f08c379a0000000000000000000000000000000000000000000000000000000008152600401610b1b90611d94565b60405180910390fd5b80600b83604051610b359190611c9f565b90815260200160405180910390206003019080519060200190610b599291906112c2565b503373ffffffffffffffffffffffffffffffffffffffff167faf2958945532289271e3d724e23d5e490599068fa73d5ea6668d667f921eae2960405160405180910390a25050565b60045481565b600660009054906101000a900473ffffffffffffffffffffffffffffffffffffffff1673ffffffffffffffffffffffffffffffffffffffff163373ffffffffffffffffffffffffffffffffffffffff1614610c37576040517f08c379a0000000000000000000000000000000000000000000000000000000008152600401610c2e90611c43565b60405180910390fd5b600660149054906101000a900460ff1615610c87576040517f08c379a0000000000000000000000000000000000000000000000000000000008152600401610c7e90611e00565b60405180910390fd5b6001600660146101000a81548160ff021916908315150217905550565b60008054610cb190611bc5565b80601f0160208091040260200160405190810160405280929190818152602001828054610cdd90611bc5565b8015610d2a5780601f10610cff57610100808354040283529160200191610d2a565b820191906000526020600020905b815481529060010190602001808311610d0d57829003601f168201915b505050505081565b600960009054906101000a900473ffffffffffffffffffffffffffffffffffffffff1681565b60058054610d6590611bc5565b80601f0160208091040260200160405190810160405280929190818152602001828054610d9190611bc5565b8015610dde5780601f10610db357610100808354040283529160200191610dde565b820191906000526020600020905b815481529060010190602001808311610dc157829003601f168201915b505050505081565b600960009054906101000a900473ffffffffffffffffffffffffffffffffffffffff1673ffffffffffffffffffffffffffffffffffffffff163373ffffffffffffffffffffffffffffffffffffffff1614610e76576040517f08c379a0000000000000000000000000000000000000000000000000000000008152600401610e6d90611d28565b60405180910390fd5b8060079080519060200190610e8c9291906112c2565b5050565b610e98611348565b6000600b83604051610eaa9190611c9f565b90815260200160405180910390206002018054610ec690611bc5565b905011610f08576040517f08c379a0000000000000000000000000000000000000000000000000000000008152600401610eff90611d94565b60405180910390fd5b600b82604051610f189190611c9f565b9081526020016040518091039020604051806080016040529081600082018054610f4190611bc5565b80601f0160208091040260200160405190810160405280929190818152602001828054610f6d90611bc5565b8015610fba5780601f10610f8f57610100808354040283529160200191610fba565b820191906000526020600020905b815481529060010190602001808311610f9d57829003601f168201915b5050505050815260200160018201548152602001600282018054610fdd90611bc5565b80601f016020809104026020016040519081016040528092919081815260200182805461100990611bc5565b80156110565780601f1061102b57610100808354040283529160200191611056565b820191906000526020600020905b81548152906001019060200180831161103957829003601f168201915b5050505050815260200160038201805461106f90611bc5565b80601f016020809104026020016040519081016040528092919081815260200182805461109b90611bc5565b80156110e85780601f106110bd576101008083540402835291602001916110e8565b820191906000526020600020905b8154815290600101906020018083116110cb57829003601f168201915b5050505050815250509050919050565b600860009054906101000a900473ffffffffffffffffffffffffffffffffffffffff1673ffffffffffffffffffffffffffffffffffffffff163373ffffffffffffffffffffffffffffffffffffffff1614611188576040517f08c379a000000000000000000000000000000000000000000000000000000000815260040161117f90611e6c565b60405180910390fd5b856000908051906020019061119e9291906112c2565b5084600190805190602001906111b59291906112c2565b508360028190555082600390805190602001906111d39291906112c2565b508160048190555080600590805190602001906111f19291906112c2565b506000600660146101000a81548160ff0219169083151502179055503373ffffffffffffffffffffffffffffffffffffffff167f6040b9f6e437ce2e9f857c60989fde17c3ec0fe4ccce15bb5916390545176c3260405160405180910390a2505050505050565b80600960006101000a81548173ffffffffffffffffffffffffffffffffffffffff021916908373ffffffffffffffffffffffffffffffffffffffff16021790555050565b600860009054906101000a900473ffffffffffffffffffffffffffffffffffffffff1681565b8280546112ce90611bc5565b90600052602060002090601f0160209004810192826112f05760008555611337565b82601f1061130957805160ff1916838001178555611337565b82800160010185558215611337579182015b8281111561133657825182559160200191906001019061131b565b5b5090506113449190611370565b5090565b6040518060800160405280606081526020016000815260200160608152602001606081525090565b5b80821115611389576000816000905550600101611371565b5090565b600081519050919050565b600082825260208201905092915050565b60005b838110156113c75780820151818401526020810190506113ac565b838111156113d6576000848401525b50505050565b6000601f19601f8301169050919050565b60006113f88261138d565b6114028185611398565b93506114128185602086016113a9565b61141b816113dc565b840191505092915050565b6000602082019050818103600083015261144081846113ed565b905092915050565b600081519050919050565b600082825260208201905092915050565b6000819050602082019050919050565b600082825260208201905092915050565b60006114908261138d565b61149a8185611474565b93506114aa8185602086016113a9565b6114b3816113dc565b840191505092915050565b6000819050919050565b6114d1816114be565b82525050565b600060808301600083015184820360008601526114f48282611485565b915050602083015161150960208601826114c8565b50604083015184820360408601526115218282611485565b9150506060830151848203606086015261153b8282611485565b9150508091505092915050565b600061155483836114d7565b905092915050565b6000602082019050919050565b600061157482611448565b61157e8185611453565b93508360208202850161159085611464565b8060005b858110156115cc57848403895281516115ad8582611548565b94506115b88361155c565b925060208a01995050600181019050611594565b50829750879550505050505092915050565b600060208201905081810360008301526115f88184611569565b905092915050565b611609816114be565b82525050565b60006020820190506116246000830184611600565b92915050565b60008115159050919050565b61163f8161162a565b82525050565b600060208201905061165a6000830184611636565b92915050565b6000604051905090565b600080fd5b600080fd5b600080fd5b600080fd5b7f4e487b7100000000000000000000000000000000000000000000000000000000600052604160045260246000fd5b6116b6826113dc565b810181811067ffffffffffffffff821117156116d5576116d461167e565b5b80604052505050565b60006116e8611660565b90506116f482826116ad565b919050565b600067ffffffffffffffff8211156117145761171361167e565b5b61171d826113dc565b9050602081019050919050565b82818337600083830152505050565b600061174c611747846116f9565b6116de565b90508281526020810184848401111561176857611767611679565b5b61177384828561172a565b509392505050565b600082601f8301126117905761178f611674565b5b81356117a0848260208601611739565b91505092915050565b6117b2816114be565b81146117bd57600080fd5b50565b6000813590506117cf816117a9565b92915050565b600080600080608085870312156117ef576117ee61166a565b5b600085013567ffffffffffffffff81111561180d5761180c61166f565b5b6118198782880161177b565b945050602061182a878288016117c0565b935050604085013567ffffffffffffffff81111561184b5761184a61166f565b5b6118578782880161177b565b925050606085013567ffffffffffffffff8111156118785761187761166f565b5b6118848782880161177b565b91505092959194509250565b600073ffffffffffffffffffffffffffffffffffffffff82169050919050565b60006118bb82611890565b9050919050565b6118cb816118b0565b82525050565b60006020820190506118e660008301846118c2565b92915050565b600080604083850312156119035761190261166a565b5b600083013567ffffffffffffffff8111156119215761192061166f565b5b61192d8582860161177b565b925050602083013567ffffffffffffffff81111561194e5761194d61166f565b5b61195a8582860161177b565b9150509250929050565b60006020828403121561197a5761197961166a565b5b600082013567ffffffffffffffff8111156119985761199761166f565b5b6119a48482850161177b565b91505092915050565b600060808301600083015184820360008601526119ca8282611485565b91505060208301516119df60208601826114c8565b50604083015184820360408601526119f78282611485565b91505060608301518482036060860152611a118282611485565b9150508091505092915050565b60006020820190508181036000830152611a3881846119ad565b905092915050565b60008060008060008060c08789031215611a5d57611a5c61166a565b5b600087013567ffffffffffffffff811115611a7b57611a7a61166f565b5b611a8789828a0161177b565b965050602087013567ffffffffffffffff811115611aa857611aa761166f565b5b611ab489828a0161177b565b9550506040611ac589828a016117c0565b945050606087013567ffffffffffffffff811115611ae657611ae561166f565b5b611af289828a0161177b565b9350506080611b0389828a016117c0565b92505060a087013567ffffffffffffffff811115611b2457611b2361166f565b5b611b3089828a0161177b565b9150509295509295509295565b611b46816118b0565b8114611b5157600080fd5b50565b600081359050611b6381611b3d565b92915050565b600060208284031215611b7f57611b7e61166a565b5b6000611b8d84828501611b54565b91505092915050565b7f4e487b7100000000000000000000000000000000000000000000000000000000600052602260045260246000fd5b60006002820490506001821680611bdd57607f821691505b60208210811415611bf157611bf0611b96565b5b50919050565b7f4f6e6c792073747564656e742063616e20726571756573742075706461746573600082015250565b6000611c2d602083611398565b9150611c3882611bf7565b602082019050919050565b60006020820190508181036000830152611c5c81611c20565b9050919050565b600081905092915050565b6000611c798261138d565b611c838185611c63565b9350611c938185602086016113a9565b80840191505092915050565b6000611cab8284611c6e565b915081905092915050565b7f4f6e6c79207468652061737369676e656420746561636865722063616e20656460008201527f69742072656d61726b7300000000000000000000000000000000000000000000602082015250565b6000611d12602a83611398565b9150611d1d82611cb6565b604082019050919050565b60006020820190508181036000830152611d4181611d05565b9050919050565b7f4365727469666963617465206e6f7420666f756e640000000000000000000000600082015250565b6000611d7e601583611398565b9150611d8982611d48565b602082019050919050565b60006020820190508181036000830152611dad81611d71565b9050919050565b7f55706461746520616c7265616479207265717565737465640000000000000000600082015250565b6000611dea601883611398565b9150611df582611db4565b602082019050919050565b60006020820190508181036000830152611e1981611ddd565b9050919050565b7f4f6e6c792061646d696e2063616e206368616e67652064657461696c73000000600082015250565b6000611e56601d83611398565b9150611e6182611e20565b602082019050919050565b60006020820190508181036000830152611e8581611e49565b905091905056fea2646970667358221220b02df2a181305015ae237d39b4ac503894a90a7682636f164b4ea939f467d13964736f6c63430008090033",
  "immutableReferences": {},
  "source": "// SPDX-License-Identifier: MIT\r\n\r\npragma solidity ^0.8.9;\r\n\r\nimport \"./Admin.sol\";\r\nimport \"./TeacherFactory.sol\";\r\n\r\ncontract StudentFactory {\r\n    Admin public adminContract; // Store reference to Admin contract\r\n    TeacherFactory public teacherFactoryContract;\r\n    mapping(address => Student) public students;\r\n    address[] public studentAccounts;\r\n\r\n    event StudentCreated(address indexed eventCaller, address studentAddress, string name, uint256 age, string course, address account);\r\n    event StudentDeleted(address indexed eventCaller, address studentAddress);\r\n    event TeacherAssigned(address indexed eventCaller, address studentAddress, address teacherAddress);\r\n\r\n    constructor(address _adminAddress, address _teacherFactoryAddress) {\r\n        adminContract = Admin(_adminAddress);\r\n        teacherFactoryContract = TeacherFactory(_teacherFactoryAddress);\r\n    }\r\n\r\n    function createStudent(\r\n        string memory _ipfsHash_photo,\r\n        string memory _id,\r\n        string memory _name,\r\n        uint256 _age,\r\n        string memory _gmail,\r\n        uint256 _mobileno,\r\n        string memory _course,\r\n        address _account\r\n    ) public {\r\n        require(msg.sender == adminContract.admin(), \"Not Allowed\"); // Check admin permission\r\n        require(address(students[_account]) == address(0), \"Student already exists\");\r\n        Student newStudent = new Student(_ipfsHash_photo, _id, _name, _age, _gmail, _mobileno, _course, _account, adminContract.admin());\r\n        students[_account] = newStudent;\r\n        studentAccounts.push(_account);\r\n\r\n        emit StudentCreated(msg.sender, address(newStudent), _name, _age, _course, _account);\r\n    }\r\n\r\n    function assignTeacher(address _studentAccount, address _teacher) public {\r\n        require(msg.sender == adminContract.admin(), \"Not Allowed\");\r\n        require(address(students[_studentAccount]) != address(0), \"Student does not exist\");\r\n        require(teacherFactoryContract.isTeacher(_teacher), \"Teacher does not exist in TeacherFactory\");\r\n\r\n        students[_studentAccount].assignteacher(_teacher);\r\n        emit TeacherAssigned(msg.sender, _studentAccount, _teacher);\r\n    }\r\n    \r\n    function deleteStudent(address _account) public {\r\n        require(msg.sender == adminContract.admin(), \"Not Allowed\");\r\n        require(address(students[_account]) != address(0), \"Student does not exist\");\r\n        delete students[_account];\r\n\r\n        for (uint256 i = 0; i < studentAccounts.length; i++) {\r\n            if (studentAccounts[i] == _account) {\r\n                studentAccounts[i] = studentAccounts[studentAccounts.length - 1];\r\n                studentAccounts.pop();\r\n                break;\r\n            }\r\n        }\r\n\r\n        emit StudentDeleted(msg.sender, _account);\r\n    }\r\n\r\n    function getStudentsWithUpdateRequests() public view returns (address[] memory) {\r\n        address[] memory studentsWithRequests = new address[](studentAccounts.length);\r\n        uint256 count = 0;\r\n\r\n        for (uint256 i = 0; i < studentAccounts.length; i++) {\r\n            Student student = students[studentAccounts[i]];\r\n            if (student.detailsRequested()) {\r\n                studentsWithRequests[count] = studentAccounts[i];\r\n                count++;\r\n            }\r\n        }\r\n\r\n        address[] memory result = new address[](count);\r\n        for (uint256 i = 0; i < count; i++) {\r\n            result[i] = studentsWithRequests[i];\r\n        }\r\n        return result;\r\n    }\r\n\r\n    function getStudent(address _account) public view returns (Student) {\r\n        return students[_account];\r\n    }\r\n\r\n    function getAllStudents() public view returns (address[] memory) {\r\n        return studentAccounts;\r\n    }\r\n\r\n    function getAdminAddress() public view returns (address) {\r\n        return adminContract.admin();\r\n    }\r\n}\r\n\r\ncontract Student {\r\n    string public id;\r\n    string public name;\r\n    uint256 public age;\r\n    string public gmail;\r\n    uint256 public mobile_no;\r\n    string public course;\r\n    address public account;\r\n    bool public detailsRequested;\r\n    string public remarks;\r\n\r\n    address public admin;\r\n    address public teacher;\r\n\r\n    string public ipfsHash_photo;\r\n\r\n    struct EventCertificate {\r\n        string eventName;\r\n        uint256 eventDate; \r\n        string fileHash;\r\n        string eventRemark;\r\n    }\r\n\r\n    event addCertificateEvent(address indexed eventCaller);\r\n    event addEventRemarkEvent(address indexed eventCaller);\r\n    event updateDetailsEvent(address indexed eventCaller);\r\n\r\n    mapping(string => EventCertificate) private certificates;\r\n    EventCertificate[] private studentCertificates;\r\n\r\n    constructor(string memory _ipfsHash_photo, string memory _id, string memory _name, uint256 _age, string memory _gmail, uint256 _mobileno, string memory _course, address _account, address _admin) {\r\n        ipfsHash_photo = _ipfsHash_photo;\r\n        id = _id;\r\n        name = _name;\r\n        age = _age;\r\n        gmail = _gmail;\r\n        mobile_no = _mobileno;\r\n        course = _course;\r\n        account = _account;\r\n        admin = _admin; \r\n        detailsRequested = false;\r\n    }\r\n\r\n    modifier onlyTeacher() {\r\n        require(msg.sender == teacher, \"Only the assigned teacher can edit remarks\");\r\n        _;\r\n    }\r\n\r\n    modifier onlyAdmin() {\r\n        require(msg.sender == admin, \"Only admin can change details\");\r\n        _;\r\n    }\r\n\r\n    function addCertificate(\r\n        string memory _eventName,\r\n        uint256 _eventDate,\r\n        string memory _fileHash,\r\n        string memory _eventRemark\r\n    ) public {\r\n        require(msg.sender == account, \"Only student can request updates\");\r\n        EventCertificate memory newCertificate = EventCertificate({\r\n            eventName: _eventName,\r\n            eventDate: _eventDate,\r\n            fileHash: _fileHash,\r\n            eventRemark: _eventRemark\r\n        });\r\n        certificates[_fileHash] = newCertificate;\r\n        studentCertificates.push(newCertificate);\r\n        emit addCertificateEvent(msg.sender); \r\n    }\r\n\r\n    function getCertificates() public view returns (EventCertificate[] memory) {\r\n        return studentCertificates;\r\n    }\r\n\r\n    function getCertificate(string memory _fileHash) public view returns (EventCertificate memory) {\r\n        require(bytes(certificates[_fileHash].fileHash).length > 0, \"Certificate not found\");\r\n        return certificates[_fileHash];\r\n    }\r\n\r\n    function addEventRemark(\r\n        string memory _fileHash,\r\n        string memory _newRemark\r\n    ) public onlyTeacher {\r\n        require(bytes(certificates[_fileHash].fileHash).length > 0, \"Certificate not found\");\r\n        certificates[_fileHash].eventRemark = _newRemark;\r\n        emit addEventRemarkEvent(msg.sender); \r\n    }\r\n\r\n    function requestDetailsUpdate() public {\r\n        require(msg.sender == account, \"Only student can request updates\");\r\n        require(!detailsRequested, \"Update already requested\");\r\n        detailsRequested = true;\r\n    }\r\n\r\n    function updateDetails(string memory _id, string memory _name, uint256 _age, string memory _gmail, uint256 _mobileno, string memory _course) public onlyAdmin {\r\n        id = _id;\r\n        name = _name;\r\n        age = _age;\r\n        gmail = _gmail;\r\n        mobile_no = _mobileno;\r\n        course = _course;\r\n        detailsRequested = false;\r\n        emit updateDetailsEvent(msg.sender); \r\n    }\r\n\r\n    function assignteacher(address _teacher) public {\r\n        teacher = _teacher;\r\n    }\r\n\r\n    function addRemarks(string memory _remarks) public onlyTeacher {\r\n        remarks = _remarks;\r\n    }\r\n}\r\n",
  "sourcePath": "E:\\SGP\\StudentManagement_SGP\\contracts\\StudentFactory.sol",
  "compiler": {
    "name": "solc",
    "version": "0.8.9+commit.e5eed63a.Emscripten.clang"
  },
  "schemaVersion": "3.4.16",
  "updatedAt": "2024-10-09T07:40:41.216Z",
  "devdoc": {
    "kind": "dev",
    "methods": {},
    "version": 1
  },
  "userdoc": {
    "kind": "user",
    "methods": {},
    "version": 1
  }
}